{
  "contractName": "BasicToken",
  "abi": [
    {
      "constant": true,
      "inputs": [],
      "name": "totalSupply",
      "outputs": [
        {
          "name": "",
          "type": "uint256"
        }
      ],
      "payable": false,
      "stateMutability": "view",
      "type": "function"
    },
    {
      "anonymous": false,
      "inputs": [
        {
          "indexed": true,
          "name": "from",
          "type": "address"
        },
        {
          "indexed": true,
          "name": "to",
          "type": "address"
        },
        {
          "indexed": false,
          "name": "value",
          "type": "uint256"
        }
      ],
      "name": "Transfer",
      "type": "event"
    },
    {
      "constant": false,
      "inputs": [
        {
          "name": "_to",
          "type": "address"
        },
        {
          "name": "_value",
          "type": "uint256"
        }
      ],
      "name": "transfer",
      "outputs": [],
      "payable": false,
      "stateMutability": "nonpayable",
      "type": "function"
    },
    {
      "constant": true,
      "inputs": [
        {
          "name": "_owner",
          "type": "address"
        }
      ],
      "name": "balanceOf",
      "outputs": [
        {
          "name": "balance",
          "type": "uint256"
        }
      ],
      "payable": false,
      "stateMutability": "view",
      "type": "function"
    }
  ],
  "bytecode": "0x608060405234801561001057600080fd5b50610376806100206000396000f300608060405260043610610057576000357c0100000000000000000000000000000000000000000000000000000000900463ffffffff16806318160ddd1461005c57806370a0823114610087578063a9059cbb146100de575b600080fd5b34801561006857600080fd5b5061007161012b565b6040518082815260200191505060405180910390f35b34801561009357600080fd5b506100c8600480360381019080803573ffffffffffffffffffffffffffffffffffffffff169060200190929190505050610131565b6040518082815260200191505060405180910390f35b3480156100ea57600080fd5b50610129600480360381019080803573ffffffffffffffffffffffffffffffffffffffff1690602001909291908035906020019092919050505061017a565b005b60005481565b6000600160008373ffffffffffffffffffffffffffffffffffffffff1673ffffffffffffffffffffffffffffffffffffffff168152602001908152602001600020549050919050565b6101cc81600160003373ffffffffffffffffffffffffffffffffffffffff1673ffffffffffffffffffffffffffffffffffffffff1681526020019081526020016000205461030d90919063ffffffff16565b600160003373ffffffffffffffffffffffffffffffffffffffff1673ffffffffffffffffffffffffffffffffffffffff1681526020019081526020016000208190555061026181600160008573ffffffffffffffffffffffffffffffffffffffff1673ffffffffffffffffffffffffffffffffffffffff1681526020019081526020016000205461032990919063ffffffff16565b600160008473ffffffffffffffffffffffffffffffffffffffff1673ffffffffffffffffffffffffffffffffffffffff168152602001908152602001600020819055508173ffffffffffffffffffffffffffffffffffffffff163373ffffffffffffffffffffffffffffffffffffffff167fddf252ad1be2c89b69c2b068fc378daa952ba7f163c4a11628f55a4df523b3ef836040518082815260200191505060405180910390a35050565b600082821115151561031e57600080fd5b818303905092915050565b600080828401905083811015151561034057600080fd5b80915050929150505600a165627a7a723058207bfe7e1bfbb6c4ec7911a9dafc7174fc2da699f129deb1d3db5dbbda8aaa13a10029",
  "source": "pragma solidity ^0.4.24;\r\n\r\n/**\r\n * @title Multi Sender, support ETH and ERC20 Tokens\r\n * @dev To Use this Dapp: http://multisender.phizhub.com\r\n*/\r\n\r\n\r\nlibrary SafeMath {\r\n  function mul(uint a, uint b) internal pure  returns (uint) {\r\n    uint c = a * b;\r\n    require(a == 0 || c / a == b);\r\n    return c;\r\n  }\r\n  function div(uint a, uint b) internal pure returns (uint) {\r\n    require(b > 0);\r\n    uint c = a / b;\r\n    require(a == b * c + a % b);\r\n    return c;\r\n  }\r\n  function sub(uint a, uint b) internal pure returns (uint) {\r\n    require(b <= a);\r\n    return a - b;\r\n  }\r\n  function add(uint a, uint b) internal pure returns (uint) {\r\n    uint c = a + b;\r\n    require(c >= a);\r\n    return c;\r\n  }\r\n  function max64(uint64 a, uint64 b) internal  pure returns (uint64) {\r\n    return a >= b ? a : b;\r\n  }\r\n  function min64(uint64 a, uint64 b) internal  pure returns (uint64) {\r\n    return a < b ? a : b;\r\n  }\r\n  function max256(uint256 a, uint256 b) internal  pure returns (uint256) {\r\n    return a >= b ? a : b;\r\n  }\r\n  function min256(uint256 a, uint256 b) internal  pure returns (uint256) {\r\n    return a < b ? a : b;\r\n  }\r\n}\r\n\r\n/**\r\n * @title Multi Sender, support ETH and ERC20 Tokens\r\n * @dev To Use this Dapp: http://multisender.phizhub.com\r\n*/\r\n\r\ncontract ERC20Basic {\r\n  uint public totalSupply;\r\n  function balanceOf(address who) public constant returns (uint);\r\n  function transfer(address to, uint value) public;\r\n  event Transfer(address indexed from, address indexed to, uint value);\r\n}\r\n\r\ncontract ERC20 is ERC20Basic {\r\n  function allowance(address owner, address spender) public constant returns (uint);\r\n  function transferFrom(address from, address to, uint value) public;\r\n  function approve(address spender, uint value) public;\r\n  event Approval(address indexed owner, address indexed spender, uint value);\r\n}\r\n\r\n/**\r\n * @title Multi Sender, support ETH and ERC20 Tokens\r\n * @dev To Use this Dapp: http://multisender.phizhub.com\r\n*/\r\n\r\ncontract BasicToken is ERC20Basic {\r\n\r\n  using SafeMath for uint;\r\n\r\n  mapping(address => uint) balances;\r\n\r\n  function transfer(address _to, uint _value) public{\r\n    balances[msg.sender] = balances[msg.sender].sub(_value);\r\n    balances[_to] = balances[_to].add(_value);\r\n    emit Transfer(msg.sender, _to, _value);\r\n  }\r\n\r\n  function balanceOf(address _owner) public constant returns (uint balance) {\r\n    return balances[_owner];\r\n  }\r\n}\r\n\r\n/**\r\n * @title Multi Sender, support ETH and ERC20 Tokens\r\n * @dev To Use this Dapp: http://multisender.phizhub.com\r\n*/\r\n\r\ncontract StandardToken is BasicToken, ERC20 {\r\n  mapping (address => mapping (address => uint)) allowed;\r\n\r\n  function transferFrom(address _from, address _to, uint _value) public {\r\n    balances[_to] = balances[_to].add(_value);\r\n    balances[_from] = balances[_from].sub(_value);\r\n    allowed[_from][msg.sender] = allowed[_from][msg.sender].sub(_value);\r\n    emit Transfer(_from, _to, _value);\r\n  }\r\n\r\n  function approve(address _spender, uint _value) public{\r\n    require((_value == 0) || (allowed[msg.sender][_spender] == 0)) ;\r\n    allowed[msg.sender][_spender] = _value;\r\n    emit Approval(msg.sender, _spender, _value);\r\n  }\r\n\r\n  function allowance(address _owner, address _spender) public constant returns (uint remaining) {\r\n    return allowed[_owner][_spender];\r\n  }\r\n}\r\n\r\n/**\r\n * @title Multi Sender, support ETH and ERC20 Tokens\r\n * @dev To Use this Dapp: http://multisender.phizhub.com\r\n*/\r\n\r\ncontract Ownable {\r\n    address public owner;\r\n\r\n    constructor() public{\r\n        owner = msg.sender;\r\n    }\r\n\r\n    modifier onlyOwner {\r\n        require(msg.sender == owner);\r\n        _;\r\n    }\r\n    function transferOwnership(address newOwner) onlyOwner public{\r\n        if (newOwner != address(0)) {\r\n            owner = newOwner;\r\n        }\r\n    }\r\n}\r\n\r\n/**\r\n * @title Multi Sender, support ETH and ERC20 Tokens\r\n * @dev To Use this Dapp: http://multisender.phizhub.com\r\n*/\r\n\r\ncontract MultiSender is Ownable, StandardToken {\r\n\r\n    using SafeMath for uint;\r\n\r\n\r\n    event LogTokenMultiSent(address token,uint256 total);\r\n    event LogGetToken(address token, address receiver, uint256 balance);\r\n    address public receiverAddress;\r\n    uint public txFee = 0.01 ether;\r\n    uint public VIPFee = 1 ether;\r\n\r\n    /* VIP List */\r\n    mapping(address => bool) public vipList;\r\n\r\n    /*\r\n  *  get balance\r\n  */\r\n  function getBalance(address _tokenAddress) onlyOwner public {\r\n      address _receiverAddress = getReceiverAddress();\r\n      if(_tokenAddress == address(0)){\r\n          require(_receiverAddress.send(address(this).balance));\r\n          return;\r\n      }\r\n      StandardToken token = StandardToken(_tokenAddress);\r\n      uint256 balance = token.balanceOf(this);\r\n      token.transfer(_receiverAddress, balance);\r\n      emit LogGetToken(_tokenAddress,_receiverAddress,balance);\r\n  }\r\n\r\n\r\n   /*\r\n  *  Register VIP\r\n  */\r\n  function registerVIP() payable public {\r\n      require(msg.value >= VIPFee);\r\n      address _receiverAddress = getReceiverAddress();\r\n      require(_receiverAddress.send(msg.value));\r\n      vipList[msg.sender] = true;\r\n  }\r\n\r\n  /*\r\n  *  VIP list\r\n  */\r\n  function addToVIPList(address[] _vipList) onlyOwner public {\r\n    for (uint i =0;i<_vipList.length;i++){\r\n      vipList[_vipList[i]] = true;\r\n    }\r\n  }\r\n\r\n  /*\r\n    * Remove address from VIP List by Owner\r\n  */\r\n  function removeFromVIPList(address[] _vipList) onlyOwner public {\r\n    for (uint i =0;i<_vipList.length;i++){\r\n      vipList[_vipList[i]] = false;\r\n    }\r\n   }\r\n\r\n    /*\r\n        * Check isVIP\r\n    */\r\n    function isVIP(address _addr) public view returns (bool) {\r\n        return _addr == owner || vipList[_addr];\r\n    }\r\n\r\n    /*\r\n        * set receiver address\r\n    */\r\n    function setReceiverAddress(address _addr) onlyOwner public {\r\n        require(_addr != address(0));\r\n        receiverAddress = _addr;\r\n    }\r\n\r\n\r\n    /*\r\n        * get receiver address\r\n    */\r\n    function getReceiverAddress() public view returns  (address){\r\n        if(receiverAddress == address(0)){\r\n            return owner;\r\n        }\r\n\r\n        return receiverAddress;\r\n    }\r\n\r\n     /*\r\n        * set vip fee\r\n    */\r\n    function setVIPFee(uint _fee) onlyOwner public {\r\n        VIPFee = _fee;\r\n    }\r\n\r\n    /*\r\n        * set tx fee\r\n    */\r\n    function setTxFee(uint _fee) onlyOwner public {\r\n        txFee = _fee;\r\n    }\r\n\r\n\r\n   function ethSendSameValue(address[] _to, uint _value) internal {\r\n\r\n        uint sendAmount = _to.length.sub(1).mul(_value);\r\n        uint remainingValue = msg.value;\r\n\r\n        bool vip = isVIP(msg.sender);\r\n        if(vip){\r\n            require(remainingValue >= sendAmount);\r\n        }else{\r\n            require(remainingValue >= sendAmount.add(txFee)) ;\r\n        }\r\n\t\trequire(_to.length <= 255);\r\n\r\n\t\tfor (uint8 i = 0; i < _to.length; i++) {\r\n\t\t\tremainingValue = remainingValue.sub(_value);\r\n\t\t\trequire(_to[i].send(_value));\r\n\t\t}\r\n\r\n\t    emit LogTokenMultiSent(0x000000000000000000000000000000000000bEEF,msg.value);\r\n    }\r\n\r\n    function ethSendDifferentValue(address[] _to, uint[] _value) internal {\r\n\r\n        uint sendAmount = _value[0];\r\n\t\tuint remainingValue = msg.value;\r\n\r\n\t    bool vip = isVIP(msg.sender);\r\n        if(vip){\r\n            require(remainingValue >= sendAmount);\r\n        }else{\r\n            require(remainingValue >= sendAmount.add(txFee)) ;\r\n        }\r\n\r\n\t\trequire(_to.length == _value.length);\r\n\t\trequire(_to.length <= 255);\r\n\r\n\t\tfor (uint8 i = 0; i < _to.length; i++) {\r\n\t\t\tremainingValue = remainingValue.sub(_value[i]);\r\n\t\t\trequire(_to[i].send(_value[i]));\r\n\t\t}\r\n\t    emit LogTokenMultiSent(0x000000000000000000000000000000000000bEEF,msg.value);\r\n\r\n    }\r\n\r\n    function coinSendSameValue(address _tokenAddress, address[] _to, uint _value)  internal {\r\n\r\n\t\tuint sendValue = msg.value;\r\n\t    bool vip = isVIP(msg.sender);\r\n        if(!vip){\r\n\t\t    require(sendValue >= txFee);\r\n        }\r\n\t\trequire(_to.length <= 255);\r\n\t\t\r\n\t\taddress from = msg.sender;\r\n\t\tuint256 sendAmount = _to.length.sub(1).mul(_value);\r\n\r\n        StandardToken token = StandardToken(_tokenAddress);\t\t\r\n\t\tfor (uint8 i = 0; i < _to.length; i++) {\r\n\t\t\ttoken.transferFrom(from, _to[i], _value);\r\n\t\t}\r\n\r\n\t    emit LogTokenMultiSent(_tokenAddress,sendAmount);\r\n\r\n\t}\r\n\r\n\tfunction coinSendDifferentValue(address _tokenAddress, address[] _to, uint[] _value)  internal  {\r\n\t\tuint sendValue = msg.value;\r\n\t    bool vip = isVIP(msg.sender);\r\n        if(!vip){\r\n\t\t    require(sendValue >= txFee);\r\n        }\r\n\r\n\t\trequire(_to.length == _value.length);\r\n\t\trequire(_to.length <= 255);\r\n\r\n        uint256 sendAmount = _value[0];\r\n        StandardToken token = StandardToken(_tokenAddress);\r\n        \r\n\t\tfor (uint8 i = 0; i < _to.length; i++) {\r\n\t\t\ttoken.transferFrom(msg.sender, _to[i], _value[i]);\r\n\t\t}\r\n        emit LogTokenMultiSent(_tokenAddress,sendAmount);\r\n\r\n\t}\r\n\r\n    /*\r\n        Send ether with the same value by a explicit call method\r\n    */\r\n\r\n    function sendEth(address[] _to, uint _value) payable public {\r\n\t\tethSendSameValue(_to,_value);\r\n\t}\r\n\r\n    /*\r\n        Send ether with the different value by a explicit call method\r\n    */\r\n    function multisend(address[] _to, uint[] _value) payable public {\r\n\t\t ethSendDifferentValue(_to,_value);\r\n\t}\r\n\r\n\t/*\r\n        Send ether with the different value by a implicit call method\r\n    */\r\n\r\n\tfunction mutiSendETHWithDifferentValue(address[] _to, uint[] _value) payable public {\r\n        ethSendDifferentValue(_to,_value);\r\n\t}\r\n\r\n\t/*\r\n        Send ether with the same value by a implicit call method\r\n    */\r\n\r\n    function mutiSendETHWithSameValue(address[] _to, uint _value) payable public {\r\n\t\tethSendSameValue(_to,_value);\r\n\t}\r\n\r\n\r\n    /*\r\n        Send coin with the same value by a implicit call method\r\n    */\r\n\r\n\tfunction mutiSendCoinWithSameValue(address _tokenAddress, address[] _to, uint _value)  payable public {\r\n\t    coinSendSameValue(_tokenAddress, _to, _value);\r\n\t}\r\n\r\n    /*\r\n        Send coin with the different value by a implicit call method, this method can save some fee.\r\n    */\r\n\tfunction mutiSendCoinWithDifferentValue(address _tokenAddress, address[] _to, uint[] _value) payable public {\r\n\t    coinSendDifferentValue(_tokenAddress, _to, _value);\r\n\t}\r\n\r\n    /*\r\n        Send coin with the different value by a explicit call method\r\n    */\r\n    function multisendToken(address _tokenAddress, address[] _to, uint[] _value) payable public {\r\n\t    coinSendDifferentValue(_tokenAddress, _to, _value);\r\n    }\r\n    /*\r\n        Send coin with the same value by a explicit call method\r\n    */\r\n    function drop(address _tokenAddress, address[] _to, uint _value)  payable public {\r\n\t\tcoinSendSameValue(_tokenAddress, _to, _value);\r\n\t}\r\n\r\n\r\n\r\n}",
  "sourcePath": "D:\\MultiSender\\contracts\\MultiSender.sol",
  "compiler": {
    "name": "solc",
    "version": "0.4.24+commit.e67f0147.Emscripten.clang"
  },
  "schemaVersion": "3.0.23",
  "updatedAt": "2020-07-29T04:26:02.830Z",
  "devdoc": {
    "methods": {},
    "title": "Multi Sender, support ETH and ERC20 Tokens\r"
  },
  "userdoc": {
    "methods": {}
  }
}